:100000000C9480000C94A8000C94A8000C94A800F8
:100010000C94A8000C94A8000C94A8000C94E72B56
:100020000C94A8000C94A8000C94A8000C94A800B0
:100030000C94A8000C94A8000C94A8000C94A800A0
:100040000C949D2B0C94A8000C94A8000C94A80070
:100050000C94A8000C94A8000C94A8000C94A80080
:100060000C94A8000C94A8004C434F544131004C10
:10007000656E636F4C45442041726475696E6F20F4
:1000800076332E3000024C656E636F4C4544204140
:10009000726475696E6F2076332E30004C434F5476
:1000A00041310000000008000201000003040700C5
:1000B00000000000000000000000002300260029CE
:1000C0000000000000250028002B00000000002494
:1000D0000027002A000404040404040404020202A9
:1000E0000202020303030303030102040810204079
:1000F0008001020408102001020408102000432C93
:1001000011241FBECFEFD8E0DEBFCDBF12E0A0E0CC
:10011000B1E0E8E7FAE602C005900D92A032B1071F
:10012000D9F725E0A0E2B2E001C01D92A834B207E1
:10013000E1F710E0C0E8D0E004C02197FE010E9482
:100140000935CF37D107C9F70E94072D0C943A35EE
:100150000C94000090E0FC01E751FF4F24918B527A
:100160009F4FFC018491882399F090E0880F991F9C
:10017000FC01E553FF4FA591B491FC01EF53FF4FF4
:10018000859194918FB7F894EC91E22BEC938FBF0B
:100190000895CF92DF92EF9230E020E026173707E4
:1001A00064F4FA01C080D180E280FC01C192D19256
:1001B000E192CF012F5F3F4FF1CFEF90DF90CF90D3
:1001C0000895CF93DF93C8E8D4E069A17AA1762798
:1001D00067277627072E000C880B990B0E94AF33F8
:1001E00020E030E04AE754E40E9405336093DB04EA
:1001F0007093DC048093DD049093DE046BA17CA1FA
:100200008DA19EA10E940F356093D3047093D404F6
:100210008093D5049093D6046FA178A5762767279D
:100220007627072E000C880B990B0E94AF3320E035
:1002300030E040E251E40E9405336093D7047093AC
:10024000D8048093D9049093DA04DF91CF91089574
:1002500080910D01882341F1509136014091370181
:10026000309138012091390170913A0160913B0140
:1002700090913C0180913D01E0915901E11102C052
:10028000BA01C901272F362F492F582F6091E90451
:100290007091EA048091EB049091EC040E94003389
:1002A000881F8827881F08955091DF044091E0043B
:1002B0003091E1042091E2047091E3046091E40440
:1002C0009091E5048091E604D7CF80910D018823B9
:1002D00041F1709136016091370190913801809120
:1002E000390150913A0140913B0130913C012091FC
:1002F0003D01E0915901E11102C0BA01C901272F66
:10030000362F492F582F6091E9047091EA048091AB
:10031000EB049091EC040E940033881F8827881F0B
:1003200008957091DF046091E0049091E104809160
:10033000E2045091E3044091E4043091E5042091FB
:10034000E604D7CF0F931F93CF93DF93EC018B017C
:10035000E881F9810480F581E02D09951B830A83EA
:1003600084E190E09F878E87E881F9810684F78594
:10037000E02DCE010995009701F19C0150E040E08D
:1003800060E472E48FE090E00E9430328091F903E3
:100390009091FA03A091FB03B091FC03821793079D
:1003A000A407B50710F4DA01C9018093F90390930B
:1003B000FA03A093FB03B093FC03CE01DF91CF912E
:1003C0001F910F910895DC0117962C91179730E03B
:1003D000F901E751FF4FE4911696EC9316972B52D3
:1003E0003F4FF9018491E82FF0E0EE0FFF1FEF532C
:1003F000FF4F8591949113969C938E931297F901D8
:100400002491E22FF0E0EE0FFF1FE954FF4F85919A
:10041000949115969C938E931497089590E0FC0107
:10042000ED55FF4F2491FC01E751FF4F3491FC0142
:10043000EB52FF4FE491EE23C9F0222339F0233031
:1004400001F1A8F4213019F1223029F1F0E0EE0F8A
:10045000FF1FEF53FF4FA591B4918FB7F894EC9124
:10046000611126C030953E233C938FBF08952730FD
:10047000A9F02830C9F0243049F7809180008F7DA1
:1004800003C0809180008F7780938000DFCF84B598
:100490008F7784BDDBCF84B58F7DFBCF8091B0009B
:1004A0008F778093B000D2CF8091B0008F7DF9CF4D
:1004B0003E2BDACF61E0809188040C940E023FB7A6
:1004C000F8948091D6039091D703A091D803B0916E
:1004D000D90326B5A89B05C02F3F19F00196A11D91
:1004E000B11D3FBFBA2FA92F982F8827BC01CD017E
:1004F000620F711D811D911D42E0660F771F881FDD
:10050000991F4A95D1F708952FB7F8946091D203B7
:100510007091D3038091D4039091D5032FBF089598
:10052000AF92BF92CF92DF92EF92FF920F931F9301
:10053000CF93DF93D090F6038091F9039091FA0363
:10054000A091FB03B091FC03892B8A2B8B2BD9F054
:100550000E945F020091F2031091F3032091F403D3
:100560003091F503601B710B820B930B0091F90323
:100570001091FA032091FB033091FC03601771077F
:1005800082079307C8F20E945F026093F2037093A0
:10059000F3038093F4039093F503E0910104F09149
:1005A0000204309759F04091FD035091FE03609191
:1005B000FF03709100048D2D0995D82EC091F00392
:1005C000D091F10380EEE82E83E0F82E870120978A
:1005D00049F183E0003F180729F18D858823F1F068
:1005E000E881F981A284B3840680F781E02DCE01F1
:1005F0000995BC01CE01F5010995F801918380832D
:100600008091F7039091F8038436910508F41C86D5
:100610000C80DD81C02D0E5F1F4FD9CFF8011182F4
:100620001082EECFC091F003D091F10308E010E00A
:100630002097A9F08D85882361F04E855F856A81BA
:100640007B81E881F9810280F381E02D2D2DCE019F
:1006500009950C80DD81C02D0150110949F7C09129
:10066000F003D091F1032097C9F0F0EFEF16F3E01B
:10067000FF06A1F08D85882351F0F701608171811B
:10068000E881F9810484F585E02DCE0109950C807F
:10069000DD81C02DF2E0EF0EF11CE5CF8091DE038D
:1006A0009091DF03EC012196D093DF03C093DE032A
:1006B0004997E4F10E9484020091DA031091DB0370
:1006C0002091DC033091DD036B017C01C01AD10A5B
:1006D000E20AF30AA70196012115310541055105EA
:1006E00021F421E030E040E050E088EE93E0C89F44
:1006F000B001C99F700DD89F700D1124072E000CFA
:10070000880B990B0E9462323093F8032093F70311
:100710001092DF031092DE030E9484026093DA03DA
:100720007093DB038093DC039093DD03DF91CF9123
:100730001F910F91FF90EF90DF90CF90BF90AF90FF
:10074000089590910A0189130BC0E5E8F0E0E49167
:100750009FEF90930A01E13049F028F0E23061F018
:1007600060E00C940E0210926E00FACF90916F0030
:100770009D7F90936F00F4CF909170009D7F909338
:10078000700091E09093B0009091B100987F9460D8
:100790009093B1001092B300E3CF8EBD00000DB472
:1007A00007FEFDCF8EB50895CF93CFB7F894809113
:1007B000B102811124C0EFEDF0E08491E3EFF0E0AD
:1007C0009491E82FF0E0EE0FFF1FE553FF4FA59146
:1007D000B491EC91E92321F461E08AE00E940E02D9
:1007E0008AE00E94AA008CB580618CBD8CB58064C3
:1007F0008CBD8DE00E94AA008BE00E94AA0080912F
:10080000B1028F5F8093B102CFBFCF9108952F9235
:100810003F924F925F926F927F928F929F92AF9290
:10082000BF92CF92DF92EF92FF920F931F93CF93DD
:10083000DF93CDB7DEB729970FB6F894DEBF0FBEB2
:10084000CDBF898749835A836B837C830091F003F2
:100850001091F103BDE78B2E912CA12CB12C011529
:10086000110509F46BC0D801ED91FC910680F78168
:10087000E02DC80109951C01D8011296ED91FC915B
:10088000C12CD12C7601412C512C320120E030E0DA
:10089000A901009791F06081260F311D411D511D66
:1008A0006181460E511C611C711C6281C60ED11CF7
:1008B000E11CF11C01973396ECCFA0E5B0E00E945B
:1008C0004F326D837E838F839887A7E3B0E0A301C7
:1008D00092010E944F322B013C01ABE4B0E0A70132
:1008E00096010E944F322D813E814F815885C32E43
:1008F000D42EE52EFF2445E0429D9001439D300D0E
:100900001124C20ED31EE11CF11C8C0C9D1CAE1CCC
:10091000BF1C452C562C672C7724840C951CA61CD8
:10092000B71C472F582F692F7727840E951EA61EB8
:10093000B71ED80114960D911C9191CFB985CB2E7D
:10094000D12CF12CE12CA7019601C501B4010E9424
:10095000D134872E982EA92EBB2429813A814B8130
:100960005C8182169306A406B50668F0A70196017D
:1009700069817A818B819C810E94D134A501940187
:100980000E9462322987898529960FB6F894DEBFC6
:100990000FBECDBFDF91CF911F910F91FF90EF90D0
:1009A000DF90CF90BF90AF909F908F907F906F908F
:1009B0005F904F903F902F900895FC01A281B381EA
:1009C0009C9186812681982381E0921380E008958E
:1009D000FC0186810280F381E02D9081809589233E
:1009E00080830895FC0196810280F381E02D80814F
:1009F000892B80830895FC0160958081869F080E75
:100A000080E0811D80838181869F080E80E0811DAA
:100A100081838281869F080E80E0811D828311245C
:100A2000CF010895AF92BF92CF92DF92EF92FF92E3
:100A30000F931F93CF93DF9300D01F92CDB7DEB7F4
:100A40005A0119821A821B82882361F18B01E1E02D
:100A5000F0E0E82EF12CD8012D918D012223F1F048
:100A60006F01B1E0CB1AD108D501AC0DBD1D4C9181
:100A70004423A1F030E02F5F3F4FD7010E94843222
:100A8000A42FB0E011969B01AC010E944F32A1E06F
:100A9000B0E0AC0FBD1FAC0DBD1D8C933196E430A2
:100AA000F105C9F669817A818B810F900F900F90C3
:100AB000DF91CF911F910F91FF90EF90DF90CF903A
:100AC000BF90AF900895FC018DEB91E091838083FE
:100AD000138212828FEF8683878380878187828744
:100AE000838781E0848785871786168680E797E16C
:100AF000918B808B83E090E0938B828B158A148A94
:100B0000158214828091F0039091F103892B21F4D6
:100B1000F093F103E093F003A091AF02B091B00223
:100B2000109721F01596FC93EE931497F093B00272
:100B3000E093AF02089581E090E00895CF93409153
:100B4000AD025091AE022091540189E593E0E5E9B0
:100B5000F3E04115510531F02091550185E993E00D
:100B6000E9E5F3E030E0452B11F54091550150E007
:100B7000A0917601B0917501C091740170E060E0C0
:100B800062177307BCF02091790130917801609170
:100B90007701FC0190E080E084179507B4F480FDB4
:100BA00010C060833183228301963396F5CF409144
:100BB0005401DDCFC083B183A2836F5F7F4F339633
:100BC000DFCF108211821282EFCFCF9108950F9361
:100BD0001F93CF93DF932091AC022F5F322F37709A
:100BE0003093AC0220FF2BC020E831FD206434702C
:100BF00009F02062205FFC01EC01239600E011E087
:100C00006785662329F070E0C8010E94F5346F5FA4
:100C10006187822F869F080E80E0811D112481113B
:100C200010C01682662311F0615061873196EC176F
:100C3000FD0731F7DF91CF911F910F91089520E0CB
:100C4000D4CF81508683EECFCF93DF93EC010E9407
:100C50005F0228813981621B730B6A307105B8F31A
:100C6000DF91CF9108954F925F927F928F929F92E2
:100C7000AF92BF92CF92DF92EF92FF920F931F93AA
:100C8000CF93DF932C01EB0146960E942406F89443
:100C90008A819B81181619060CF0CDC1E881F98173
:100CA0006BB1862E689485F83BB13F7D3BB9DA8401
:100CB0008F81ED2CE81A8E2DEF824C85042E000CCE
:100CC000550BAA81BB817889FF84E9887F5FF39403
:100CD000E3949E819884B984AB841181C12C2C2D1E
:100CE0000C2D6C2D6181112788946111680F08F417
:100CF0006FEF8195889470FD160F1795889471FD9C
:100D0000160F1795889472FD160F1795889473FD2A
:100D1000160F1795889474FD160F1795889475FD16
:100D2000160F1795889476FD160F1795889477FD02
:100D3000160F17958894262F7111212F8D0D122FC4
:100D4000002C8BB800C017FF3BB960812227889424
:100D500000C000C0002C3BB96111690F00C0002C1D
:100D60008BB800C016FF3BB908F46FEF91958894DB
:100D700000C000C0002C3BB9F0FC260F00C0002CC6
:100D80008BB800C015FF3BB927958894F1FC260F5E
:100D900000C000C0002C3BB92795889400C0002CEF
:100DA0008BB800C014FF3BB9F2FC260F279588943E
:100DB00000C000C0002C3BB9F3FC260F00C0002C83
:100DC0008BB800C013FF3BB927958894F4FC260F1D
:100DD00000C000C0002C3BB92795889400C0002CAF
:100DE0008BB800C012FF3BB9F5FC260F27958894FD
:100DF00000C000C0002C3BB9F6FC260F00C0002C40
:100E00008BB800C011FF3BB927958894F7FC260FDB
:100E100000C000C0002C3BB92795889400C0002C6E
:100E20008BB800C010FF3BB9162FF110122F9B0D8D
:100E300000C000C0002C3BB900C000C0002C8BB823
:100E400000C017FF3BB962812227889400C000C010
:100E5000002C3BB96111690D00C0002C8BB800C09B
:100E600016FF3BB908F46FEFE40FF51F00C000C098
:100E7000002C3BB9E0FC260F00C0002C8BB800C052
:100E800015FF3BB927958894E1FC260F00C000C0F0
:100E9000002C3BB92795889400C0002C8BB800C06B
:100EA00014FF3BB9E2FC260F2795889400C000C0D0
:100EB000002C3BB9E3FC260F00C0002C8BB800C00F
:100EC00013FF3BB927958894E4FC260F00C000C0AF
:100ED000002C3BB92795889400C0002C8BB800C02B
:100EE00012FF3BB9E5FC260F2795889400C000C08F
:100EF000002C3BB9E6FC260F00C0002C8BB800C0CC
:100F000011FF3BB927958894E7FC260F00C000C06D
:100F1000002C3BB92795889400C0002C8BB800C0EA
:100F200010FF3BB9162FE110122F919400C000C0A2
:100F3000002C3BB99A0C00C000C08BB800C017FF52
:100F40003BB961812227889400C000C0002C3BB9C6
:100F50006111680F00C0002C8BB800C016FF3BB9B0
:100F600008F46FEF8195889400C000C0002C3BB955
:100F700070FD260F00C0002C8BB800C015FF3BB9D8
:100F80002795889471FD260F00C000C0002C3BB946
:100F90002795889400C0002C8BB800C014FF3BB983
:100FA00072FD260F2795889400C000C0002C3BB925
:100FB00073FD260F00C0002C8BB800C013FF3BB997
:100FC0002795889474FD260F00C000C0002C3BB903
:100FD0002795889400C0002C8BB800C012FF3BB945
:100FE00075FD260F2795889400C000C0002C3BB9E2
:100FF00076FD260F00C0002C8BB800C011FF3BB956
:101000002795889477FD260F00C000C0002C3BB9BF
:101010002795889400C0002C8BB800C010FF3BB906
:10102000162F7111122F8D0D00C000C0002C3BB97E
:10103000119709F086CEEA81FB812EE130E0DF01D5
:101040000E941E3530E020E0A901AAE9EA9F0E0EB9
:10105000411DFA9F400D511D11244F0F511D7B0161
:101060008C01E40EF51E011D111DB801A701493EBA
:1010700003E050076105710508F435C0485E534030
:101080006109710982E076956795579547958A952C
:10109000D1F7C90127E0429F040E811D529F800DA8
:1010A000911D1124850F911D2091AB0230E0420F5C
:1010B000531F840F951F4091D2035091D303609129
:1010C000D4037091D503292F3327420F531F611D7D
:1010D000711D4093D2035093D3036093D403709354
:1010E000D5038093AB0278940E945F02F201778B64
:1010F000668BDF91CF911F910F91FF90EF90DF9062
:10110000CF90BF90AF909F908F907F905F904F90C7
:10111000089580E991E00895559A08954F925F925D
:101120007F928F929F92AF92BF92CF92DF92EF9277
:10113000FF920F931F93CF93DF932C01EB01469601
:101140000E942406F8948A819B81181619060CF0D7
:10115000CDC1E881F9816BB1862E689486F83BB1E8
:101160003F7B3BB9DA848F81ED2CE81A8E2DEF821C
:101170004C85042E000C550BAA81BB817889FF8415
:10118000E9887F5FF394E3949E819884B984AB846B
:101190001181C12C2C2D0C2D6C2D6181112788946F
:1011A0006111680F08F46FEF8195889470FD160F38
:1011B0001795889471FD160F1795889472FD160F78
:1011C0001795889473FD160F1795889474FD160F64
:1011D0001795889475FD160F1795889476FD160F50
:1011E0001795889477FD160F17958894262F7111FF
:1011F000212F8D0D122F002C8BB800C017FF3BB98B
:1012000060812227889400C000C0002C3BB9611186
:10121000690F00C0002C8BB800C016FF3BB908F462
:101220006FEF9195889400C000C0002C3BB9F0FC92
:10123000260F00C0002C8BB800C015FF3BB92795C6
:101240008894F1FC260F00C000C0002C3BB9279504
:10125000889400C0002C8BB800C014FF3BB9F2FC8E
:10126000260F2795889400C000C0002C3BB9F3FCE2
:10127000260F00C0002C8BB800C013FF3BB9279588
:101280008894F4FC260F00C000C0002C3BB92795C1
:10129000889400C0002C8BB800C012FF3BB9F5FC4D
:1012A000260F2795889400C000C0002C3BB9F6FC9F
:1012B000260F00C0002C8BB800C011FF3BB927954A
:1012C0008894F7FC260F00C000C0002C3BB927957E
:1012D000889400C0002C8BB800C010FF3BB9162FBB
:1012E000F110122F9B0D00C000C0002C3BB900C0B4
:1012F00000C0002C8BB800C017FF3BB962812227C9
:10130000889400C000C0002C3BB96111690D00C079
:10131000002C8BB800C016FF3BB908F46FEFE40F48
:10132000F51F00C000C0002C3BB9E0FC260F00C038
:10133000002C8BB800C015FF3BB927958894E1FCC1
:10134000260F00C000C0002C3BB92795889400C030
:10135000002C8BB800C014FF3BB9E2FC260F279588
:10136000889400C000C0002C3BB9E3FC260F00C0ED
:10137000002C8BB800C013FF3BB927958894E4FC80
:10138000260F00C000C0002C3BB92795889400C0F0
:10139000002C8BB800C012FF3BB9E5FC260F279547
:1013A000889400C000C0002C3BB9E6FC260F00C0AA
:1013B000002C8BB800C011FF3BB927958894E7FC3F
:1013C000260F00C000C0002C3BB92795889400C0B0
:1013D000002C8BB800C010FF3BB9162FE110122F64
:1013E000919400C000C0002C3BB99A0C00C000C012
:1013F0008BB800C017FF3BB961812227889400C0D9
:1014000000C0002C3BB96111680F00C0002C8BB8E4
:1014100000C016FF3BB908F46FEF8195889400C0B7
:1014200000C0002C3BB970FD260F00C0002C8BB80B
:1014300000C015FF3BB92795889471FD260F00C0A9
:1014400000C0002C3BB92795889400C0002C8BB8B5
:1014500000C014FF3BB972FD260F2795889400C089
:1014600000C0002C3BB973FD260F00C0002C8BB8C8
:1014700000C013FF3BB92795889474FD260F00C068
:1014800000C0002C3BB92795889400C0002C8BB875
:1014900000C012FF3BB975FD260F2795889400C048
:1014A00000C0002C3BB976FD260F00C0002C8BB885
:1014B00000C011FF3BB92795889477FD260F00C027
:1014C00000C0002C3BB92795889400C0002C8BB835
:1014D00000C010FF3BB9162F7111122F8D0D00C0E7
:1014E00000C0002C3BB9119709F086CEEA81FB8140
:1014F0002EE130E0DF010E941E3530E020E0A9013E
:10150000AAE9EA9F0E0E411DFA9F400D511D1124BC
:101510004F0F511D7B018C01E40EF51E011D111DA5
:10152000B801A701493E03E050076105710508F4C1
:1015300035C0485E53406109710982E07695679530
:10154000579547958A95D1F7C90127E0429F040E28
:10155000811D529F800D911D1124850F911D209199
:10156000AB0230E0420F531F840F951F4091D2030E
:101570005091D3036091D4037091D503292F332761
:10158000420F531F611D711D4093D2035093D3032B
:101590006093D4037093D5038093AB0278940E9438
:1015A0005F02F201778B668BDF91CF911F910F91D4
:1015B000FF90EF90DF90CF90BF90AF909F908F9073
:1015C0007F905F904F900895569A08954F925F9242
:1015D0007F928F929F92AF92BF92CF92DF92EF92C3
:1015E000FF920F931F93CF93DF932C01EB0146964D
:1015F0000E942406F8948A819B81181619060CF023
:10160000CDC1E881F98168B1862E689480F838B13F
:101610003E7F38B9DA848F81ED2CE81A8E2DEF8267
:101620004C85042E000C550BAA81BB817889FF8460
:10163000E9887F5FF394E3949E819884B984AB84B6
:101640001181C12C2C2D0C2D6C2D618111278894BA
:101650006111680F08F46FEF8195889470FD160F83
:101660001795889471FD160F1795889472FD160FC3
:101670001795889473FD160F1795889474FD160FAF
:101680001795889475FD160F1795889476FD160F9B
:101690001795889477FD160F17958894262F71114A
:1016A000212F8D0D122F002C88B800C017FF38B9DC
:1016B00060812227889400C000C0002C38B96111D5
:1016C000690F00C0002C88B800C016FF38B908F4B4
:1016D0006FEF9195889400C000C0002C38B9F0FCE1
:1016E000260F00C0002C88B800C015FF38B9279518
:1016F0008894F1FC260F00C000C0002C38B9279553
:10170000889400C0002C88B800C014FF38B9F2FCDF
:10171000260F2795889400C000C0002C38B9F3FC30
:10172000260F00C0002C88B800C013FF38B92795D9
:101730008894F4FC260F00C000C0002C38B927950F
:10174000889400C0002C88B800C012FF38B9F5FC9E
:10175000260F2795889400C000C0002C38B9F6FCED
:10176000260F00C0002C88B800C011FF38B927959B
:101770008894F7FC260F00C000C0002C38B92795CC
:10178000889400C0002C88B800C010FF38B9162F0C
:10179000F110122F9B0D00C000C0002C38B900C002
:1017A00000C0002C88B800C017FF38B9628122271A
:1017B000889400C000C0002C38B96111690D00C0C8
:1017C000002C88B800C016FF38B908F46FEFE40F9A
:1017D000F51F00C000C0002C38B9E0FC260F00C087
:1017E000002C88B800C015FF38B927958894E1FC13
:1017F000260F00C000C0002C38B92795889400C07F
:10180000002C88B800C014FF38B9E2FC260F2795D9
:10181000889400C000C0002C38B9E3FC260F00C03B
:10182000002C88B800C013FF38B927958894E4FCD1
:10183000260F00C000C0002C38B92795889400C03E
:10184000002C88B800C012FF38B9E5FC260F279598
:10185000889400C000C0002C38B9E6FC260F00C0F8
:10186000002C88B800C011FF38B927958894E7FC90
:10187000260F00C000C0002C38B92795889400C0FE
:10188000002C88B800C010FF38B9162FE110122FB5
:10189000919400C000C0002C38B99A0C00C000C060
:1018A00088B800C017FF38B961812227889400C02A
:1018B00000C0002C38B96111680F00C0002C88B836
:1018C00000C016FF38B908F46FEF8195889400C006
:1018D00000C0002C38B970FD260F00C0002C88B85D
:1018E00000C015FF38B92795889471FD260F00C0F8
:1018F00000C0002C38B92795889400C0002C88B807
:1019000000C014FF38B972FD260F2795889400C0D7
:1019100000C0002C38B973FD260F00C0002C88B819
:1019200000C013FF38B92795889474FD260F00C0B6
:1019300000C0002C38B92795889400C0002C88B8C6
:1019400000C012FF38B975FD260F2795889400C096
:1019500000C0002C38B976FD260F00C0002C88B8D6
:1019600000C011FF38B92795889477FD260F00C075
:1019700000C0002C38B92795889400C0002C88B886
:1019800000C010FF38B9162F7111122F8D0D00C035
:1019900000C0002C38B9119709F086CEEA81FB818E
:1019A0002EE130E0DF010E941E3530E020E0A90189
:1019B000AAE9EA9F0E0E411DFA9F400D511D112408
:1019C0004F0F511D7B018C01E40EF51E011D111DF1
:1019D000B801A701493E03E050076105710508F40D
:1019E00035C0485E53406109710982E0769567957C
:1019F000579547958A95D1F7C90127E0429F040E74
:101A0000811D529F800D911D1124850F911D2091E4
:101A1000AB0230E0420F531F840F951F4091D20359
:101A20005091D3036091D4037091D503292F3327AC
:101A3000420F531F611D711D4093D2035093D30376
:101A40006093D4037093D5038093AB0278940E9483
:101A50005F02F201778B668BDF91CF911F910F911F
:101A6000FF90EF90DF90CF90BF90AF909F908F90BE
:101A70007F905F904F900895389A08956F927F926B
:101A80008F92CF92DF92EF92FF920F931F93CF939B
:101A9000DF93CDB7DEB762970FB6F894DEBF0FBE07
:101AA000CDBF8C016B017A01822FA801475F5F4F88
:101AB000B8016A5F7F4F0E9412053B01882ED80152
:101AC0001C962C91C701F7FE04C0882799278E1910
:101AD0009F09DA82C9829C838B839E838D83688A67
:101AE000798A8A8A213049F5CE0101960E94E7055C
:101AF00083E08D871F861E86F7FE02C08DEF8D87DF
:101B0000D801ED91FC910088F189E02DBE016F5F55
:101B10007F4FC801099562960FB6F894DEBF0FBEDD
:101B2000CDBFDF91CF911F910F91FF90EF90DF908C
:101B3000CF908F907F906F9008951C861B861A8699
:101B4000198618861F82D4CFCF92DF92EF92FF9230
:101B50000F931F93CF93DF93CDB7DEB762970FB686
:101B6000F894DEBF0FBECDBF8C016B017A01822FCE
:101B7000A801475F5F4FB8016A5F7F4F0E9412055F
:101B80009B01482FD8011C968C91DA82C982FC8275
:101B9000EB82FE82ED82288B398B4A8B813009F5EE
:101BA000CE0101960E94E7051D861F861E86D8017C
:101BB000ED91FC910088F189E02DBE016F5F7F4FB0
:101BC000C801099562960FB6F894DEBF0FBECDBF6F
:101BD000DF91CF911F910F91FF90EF90DF90CF9009
:101BE00008951C861B861A86198618861F82DCCFEC
:101BF000E09154018E2F90E023E0E29FF001112448
:101C0000EB56FC4F8431910534F41082118212821C
:101C100001963396F7CFE09155018E2F90E023E0A7
:101C2000E29FF0011124E75AFC4F8431910534F40E
:101C300010821182128201963396F7CFE0915601FD
:101C40008E2F90E023E0E29FF0011124E35EFC4F31
:101C50008431910534F410821182128201963396F8
:101C6000F7CF0895CF93DF9300D01F92CDB7DEB7A3
:101C700020E030E04FE753E40E9464340E94773361
:101C80002091560177FD30C06F3F710519F014F0B7
:101C90006FEF70E0662309F427C0EDE1F3E050E058
:101CA00040E0822F90E0481759070CF029C02081AE
:101CB000222321F0269F212D09F02F5F20832181EF
:101CC000222321F0269F212D09F02F5F21832281DD
:101CD000222321F0269F212D09F02F5F228311243A
:101CE0004F5F5F4F3396DFCF19821A821B82622FBC
:101CF00070E0AE014F5F5F4F8DE193E00E94C9003D
:101D00000F900F900F90DF91CF9108958F929F9237
:101D1000AF92BF92CF92DF92EF92FF920F931F93F9
:101D2000CF93DF9300D01F92CDB7DEB74B015C019C
:101D30006A01790119821A821B826091560170E052
:101D4000AE014F5F5F4F8DE193E00E94C900CE145A
:101D5000DF040CF07AC0B6010D2C000C880B990B37
:101D60000E94AF339B01AC01C501B4010E949332C4
:101D70004B015C01B7016C197D09072E000C880B23
:101D8000990B0E94AF339B01AC01C501B4010E94C5
:101D900005336B017C0120E030E0A9010E94003393
:101DA00087FD48C020E030E040E85FE3C701B601AE
:101DB0000E945F3418160CF441C040915601A42EC5
:101DC000B12CB5010B2C000C880B990B0E94AF3382
:101DD000A70196010E9464340E94773377FD35C0D5
:101DE0006A157B050CF45B01EDE1F3E030E020E0E7
:101DF000802F90E08C01000F111F080F191F055F45
:101E00001E4F78018BE6E80EF11CA80146595F4F82
:101E100007591F4FA216B306C1F0D7018C91DA0102
:101E20009C91D8016C916083918382832F5F3F4F97
:101E30003396F0CFC12CD12C7601BFCFC12CD12C41
:101E400050E8E52E5FE3F52EB8CF0F900F900F907E
:101E5000DF91CF911F910F91FF90EF90DF90CF9086
:101E6000BF90AF909F908F9008950E94840220E9C8
:101E700031E040E050E00E94623221703327442775
:101E800055276091560170E0EDE1F3E090E080E0CD
:101E9000AFEFB0E58617970774F4211531054105BA
:101EA000510531F4A083B183128201963396F2CFAB
:101EB00010821182F9CF08958F929F92AF92BF92B4
:101EC000CF92DF92EF92FF920F931F93CF93DF9306
:101ED00080910D01882309F45AC080914E01882316
:101EE00009F455C080904A0190904B01A0904C019C
:101EF000B0904D0120E030E0A901C501B4010E947D
:101F0000003387FD8FC020E030E040E85FE3C5018B
:101F1000B4010E945F3418160CF4A0C02DEC3CEC08
:101F20004CE45EE3C501B4010E94003318160CF4C2
:101F30007DC0C091830100918401E0908501C09033
:101F40005601D12CB6010D2C000C880B990B0E9468
:101F5000AF33A50194010E9464340E94773320912D
:101F600088013091870140918601EDE1F3E090E036
:101F700080E08C159D050CF07CC0861797070CF04F
:101F800074C0C0830183E28201963396F2CFC09081
:101F90006C01D0906D01E0906E01F0906F01A7018F
:101FA0009601609173027091740280917502909114
:101FB00076020E9493324B015C01A7019601609169
:101FC00070017091710180917201909173010E9472
:101FD00093329B01AC01C501B4010E9405334B0152
:101FE0005C012DEC3CEC4CEC5DEB0E94003387FD7A
:101FF0000BC02DEC3CEC4CE85FE3C501B4010E9442
:102000005F3418160CF076CFDF91CF911F910F91AE
:10201000FF90EF90DF90CF90BF90AF909F908F9008
:102020000C94350F812C912C540183CF2DEC3CEC7A
:102030004CEC5EE3C501B4010E940033C091800105
:1020400000918101E090820118160CF078CFC091C8
:102050007D0100917E01E0907F0171CF812C912C58
:1020600080E8A82E8FE3B82EF2CF408331832283FD
:102070008BCFDF91CF911F910F91FF90EF90DF9069
:10208000CF90BF90AF909F908F9008952F923F92E6
:102090004F925F926F927F928F929F92AF92BF9278
:1020A000CF92DF92EF92FF920F931F93CF93DF9324
:1020B000CDB7DEB72D970FB6F894DEBF0FBECDBFFC
:1020C00068879CEF980F943050F590910D01911115
:1020D00026C019821A821B826091560170E0AE01FF
:1020E0004F5F5F4F8DE193E00E94C9002D960FB6C0
:1020F000F894DEBF0FBECDBFDF91CF911F910F913E
:10210000FF90EF90DF90CF90BF90AF909F908F9017
:102110007F906F905F904F903F902F9008958150E7
:10212000873008F0E0C2E82FF0E0E756FF4E0C944D
:102130000935A0106910A610BE11C3124F13611308
:102140000E945C0F8885882389F26FC380915001BB
:1021500090915601092F10E066246394712C882316
:1021600029F0682E712C981708F43801B0905301AB
:102170000E948402C090A302D090A402E090A50225
:10218000F090A602AB01BC014C195D096E097F09F4
:102190008091510190915201B0E0A0E04817590799
:1021A0006A077B0708F4A2CF0619170917FF02C0B8
:1021B00010E000E00E9484026093A3027093A402E6
:1021C0008093A5029093A602C090A102D090A20293
:1021D0000C151D050CF468017601D7FE02C0F12C28
:1021E000E12CF092A202E092A1022B2D30E02431EA
:1021F000310514F023E130E040919F025091A0029C
:1022000019018FEF281A380AC1014217530714F435
:10221000CA0101969093A00280939F025C01E1E0C5
:10222000AE1AB1084C01880C991CF401E958FD4F15
:1022300001973297181619063CF4DF0112972D9179
:102240003C9131832083F4CFF0927802E0927702C0
:1022500019821A821B826091560170E0AE014F5FB5
:102260005F4F8DE193E00E94C9009101D1010E946E
:10227000843269877A878B879C8780915601282FC3
:1022800030E03F832E8350908E0140908D0130913D
:102290008C013D87C4018B589D4F9D838C8388247E
:1022A0008A94912CB7FC51C02FEFA114B10491F086
:1022B000D101AA19BB099D010E9416359B01AC01F1
:1022C000AFEFB0E00E944F3229853A854B855C859F
:1022D0000E946232529EC0011124B4010E94F53462
:1022E000362F429EC0011124B4010E94F534462FBE
:1022F000ED85E29FC0011124B4010E94F53490E005
:1023000080E068167906B9F0EC81FD81A081B18189
:10231000A80FB91FEE81FF81AE17BF0750F4FD0172
:10232000EE0FFF1FEA0FFB1FE35EFC4F608341834C
:1023300032830196E6CFF1E0AF1AB1082C813D81DE
:10234000225031093D832C83ADCF8FEF9FEFE016F4
:10235000F1062CF41C141D0434F081E090E09093FD
:102360000901809308018091080190910901E80E0C
:10237000F91EF092A202E092A102E4CE19821A8222
:102380001B826091560170E0AE014F5F5F4F8DE19F
:1023900093E00E94C900C0905C01D0905D01E09084
:1023A0005A01F0905B01EC14FD040CF0CBCE0091CF
:1023B0005601023008F4C6CE30903101209032012F
:1023C000309133013C83509134015E83F7FED1C0DC
:1023D0001C141D040CF0CDC0662777276E197F09E9
:1023E000072E000C880B990B0E94AF334B015C0148
:1023F00010E0B6016E197F09072E000C880B990BAF
:102400000E94AF339B01AC01C501B4010E940533AA
:102410002B013C01B801012E000C880B990B0E9486
:10242000AF339B01AC01C301B2010E9464340E942E
:1024300077337B0177FD54C06017710724F0780172
:1024400081E0E81AF108432C522C6C807E8020E059
:1024500030E0A901C301B2010E945F3487FD43C08F
:102460000E191F09B601DD0C880B990B0E94AF33C2
:102470009B01AC01632D722D8C819E810E940533DE
:102480004B015C01B801012E000C880B990B0E94D6
:10249000AF339B01AC01C501B4010E9464340E94BA
:1024A000773377FD4FCE601771070CF48B012091C5
:1024B0009A013091990140919801F701EE0FFF1FA9
:1024C000EE0DFF1DE35EFC4F90E080E0801791076A
:1024D0000CF038CE40833183228301963396F6CFB9
:1024E000F12CE12CB0CF20E030E0A901C301B20112
:1024F0000E945F34181624F077FA709477F870947D
:1025000087010F5F1F4FA5019401C301B2010E9413
:1025100005334B015C01B801012E000C880B990BAF
:102520000E94AF339B01AC01C501B4010E94643429
:102530000E94773377FD06CE601771070CF48B018C
:1025400020919D0130919C0140919B01F701EE0F7C
:10255000FF1FEE0DFF1DE35EFC4F90E080E00817CB
:10256000190709F4EFCD4083318322830196339715
:10257000F6CF0CE09601A701632D722D8C819E8110
:102580000E94860EDFCD19821A821B82609156014D
:1025900070E0AE014F5F5F4F8DE193E00E94C90094
:1025A000F0905E01FF2009F4CDCDC090560191E07E
:1025B0009C1508F0C7CD0C2D069510E040903E010B
:1025C00050903F01609040017090410120E030E068
:1025D000A901C301B2010E945F34530142011816E0
:1025E00024F0B7FAB094B7F8B0946F2D70E090E093
:1025F00080E00E94AF339B01AC01C501B4010E9491
:1026000005334B015C01B801012E000C880B990BBE
:102610000E94AF339B01AC01C501B4010E94643438
:102620000E94773377FD8ECD5801601771070CF447
:102630005B01E091A001EC8330909F0120909E010E
:10264000F12CE12CD12C4801F1E08F1A9108AE1445
:10265000BF0409F477CD20E030E0A901C301B20145
:102660000E945F341816BCF4C4018E199F0997FDAF
:102670000EC08C159D055CF4FC01EE0FFF1FE80FEA
:10268000F91FE35EFC4F208231822C8122833FEFD1
:10269000E31AF30ADCCFC701800F911FEACF209124
:1026A00061013091620140915F0150916001609140
:1026B00042017091430180914401909145010FE0E6
:1026C0005FCF209165013091660140916301509187
:1026D0006401609146017091470180914801909199
:1026E000490100E14DCFC090A702D090A802E09030
:1026F000A902F090AA0220E030E0A901C701B601CA
:102700000E945F34181624F0F7FAF094F7F8F0946A
:1027100020E030E0A901C701B6010E94003387FD27
:1027200055C020E030E040E85FE3C701B6010E94F9
:102730005F34181634F4C12CD12C80E8E82E8FE3D6
:10274000F82EA0905601B12CB5010B2C000C880B73
:10275000990B0E94AF33A70196010E9464340E9436
:1027600077338B01A616B7060CF4850117FF02C05C
:1027700010E000E06091680170E090E080E00E946D
:10278000AF3320E030E048EC52E40E9405339B0177
:10279000AC01C701B6010E945F3487FD1BC04091A8
:1027A00095012091960180919701EDE1F3E070E0B1
:1027B00060E06A157B05ACF56017710774F540831E
:1027C000218382836F5F7F4F3396F3CFC12CD12C4F
:1027D0007601B7CF6091670170E090E080E00E94E1
:1027E000AF3320E030E048EC52E40E9405339B0117
:1027F000AC01C701B6010E945F3487FD07C040915C
:1028000092012091930180919401CFCF40918F014B
:102810002091900180919101C8CF10821182128283
:10282000D1CF5885552309F461CC60916B0170E0DC
:1028300090E080E00E94AF3320E030E048EC52E4CA
:102840000E9405330E94320E51CC90E080E0089542
:10285000FC0164870895FC01848590E00895FC01E3
:102860008685978508950F931F9300918904109191
:102870008A0420918B0430918C0440E052E16AE795
:1028800070E080E0041715072607370740F47695B7
:102890006795579547958F5F8630A1F787E0982F0A
:1028A000906A9695809581709CBD8DBD60E0809109
:1028B00088041F910F910C940E02CF93C82F0E9491
:1028C000331483E00E94CD038C2F0E94CD0380E05F
:1028D0000E94CD03C82F0E945A028C2FCF910895D9
:1028E0001F93CF93DF93182FD62FC42F0E9433143A
:1028F00085E00E94CD03812F0E94CD038D2F0E9481
:10290000CD038C2F0E94CD03DF91CF911F910C94AA
:102910005A02CF92DF92EF92FF92CF93C82F482FA7
:1029200068EE8FE00E9470140E9484026B017C01AB
:102930002AE0C20ED11CE11CF11C0E9484026C151D
:102940007D058E059F0580F48EE00E945D14807EDB
:10295000C813F3CF81E091E0892790E0CF91FF90F9
:10296000EF90DF90CF90089580E0F5CFCF93DF9385
:10297000D82FC62F0E94331482E00E94CD038D2FE2
:102980000E94CD038C2F0E94CD03DF91CF910C9438
:102990005A02FF920F931F93CF93DF93C82FF62E07
:1029A000172F042F0E94331482E00E94CD038C2F36
:1029B0000E94CD03CF2DD12F0C0F1D2F111DC0173D
:1029C000D10721F089910E94CD03F9CFDF91CF91FA
:1029D0001F910F91FF900C945A02FF920F931F9337
:1029E000CF93DF93C82FF62E172F042F0E94331496
:1029F00083E00E94CD038C2F0E94CD03CF2DD12FD9
:102A00000C0F1D2F111DC017D10729F080E00E9467
:102A1000CD038993F8CFDF91CF911F910F91FF9054
:102A20000C945A02BF92CF92DF92EF92FF920F93D3
:102A30001F93CF93DF9300D000D01F92CDB7DEB7A6
:102A40008C01000F111F000F111FF801E15FFD4FF6
:102A500045E0BE016F5F7F4F81810E94ED148A8146
:102A6000C98098E0C99E60011124282F30E055E00C
:102A7000359527955A95E1F7C20ED31E0D2C000C03
:102A8000EE08FF0883FF20C092E0CC0CDD1CEE1C9A
:102A9000FF1C9A95D1F78370C80ED11CE11CF11C64
:102AA000FE2CED2CDC2CCC248B81C80ED11CE11C1F
:102AB000F11CFE2CED2CDC2CCC248C81C80ED11CFE
:102AC000E11CF11C6894F7F88D818F70B82EE8E056
:102AD00081E090E0EB1528F1F801E15FFD4F808186
:102AE0000E945D1483FF02C06894F6F8C0929004BF
:102AF000D0929104E0929204F0929304B0929404E4
:102B0000015F1D4F4B2D68E974E0F80182810E943E
:102B1000ED1440E0F80163818CE20E94701490E0B3
:102B200080E00F900F900F900F900F90DF91CF915A
:102B30001F910F91FF90EF90DF90CF90BF9008957D
:102B4000CF930E94331480EA0E94CD0380E00E945C
:102B5000CD03C82F0E945A0290E080E0C0FD04C05F
:102B6000C1FF05C081E090E0CF910C94121585E083
:102B700090E0CF9108954F925F926F927F928F92E3
:102B80009F92AF92BF92CF92DF92EF92FF920F93FC
:102B90001F93CF93DF93CDB7DEB763970FB6F8944B
:102BA000DEBF0FBECDBF6C0186E0E7EAF1E0DE01DB
:102BB0001E9601900D928A95E1F73E018EE0680E17
:102BC000711C4E01E4E18E0E911CF301E190F19035
:102BD0003F018701000F111FF801EE0DFF1DE95E97
:102BE000FD4FA0808A2D0E945D1483FD95C0F601E3
:102BF000B480F8E0FB1508F465C0F601808191818E
:102C0000A281B381AC01BD01442777FD43955527CF
:102C100066277727242FAC01BD0144275527662757
:102C2000707444244A94542C642CFFE17F2E2111AB
:102C300006C044244A94E7E05E2E612C712C842166
:102C40009521A621B721222309F43FC08C839B83C1
:102C5000CD01AA27BB27282F220F220F220F207E6B
:102C6000382F33703860232B2A8335E0969587956B
:102C70003A95E1F789838B2D452B462B472B09F09D
:102C800080648D834B2D50E0B601685F7F4FCE018D
:102C900006960E942A3545E04B0D0E0D1F1DF801CA
:102CA000E95EFD4FBE016F5F7F4F81810E94C914B5
:102CB00048E068E08A2D0E9470148A2D0E945D14FD
:102CC000807789F084E090E010C09C0193E0369515
:102CD00027959A95E1F729838295880F807E8A83CC
:102CE0001C821B82C8CF90E080E063960FB6F894F8
:102CF000DEBF0FBECDBFDF91CF911F910F91FF902F
:102D0000EF90DF90CF90BF90AF909F908F907F908B
:102D10006F905F904F9008956814790409F055CF33
:102D200082E090E0E2CF0E9425351F93CF93DF939E
:102D3000EC01162F0E941A32181739F0612FCE01BC
:102D4000DF91CF911F910C942232DF91CF911F918F
:102D500008956091540180E490E00E94951660917E
:102D6000550181E490E00E9495166091560182E43D
:102D700090E00C949516CF93DF93609150018CE313
:102D800090E00E949516C1E5D1E069818DE390E065
:102D90000E94951668818EE390E00E9495166091DE
:102DA00053018FE390E0DF91CF910C9495166091E1
:102DB000580120E1629FC0011124609157016F709A
:102DC000682B83E490E00E9495166091590186E596
:102DD00090E00C9495166091690184E490E00E9463
:102DE000951660916A0185E490E00E9495166091C5
:102DF0006B0186E490E00C949516FF920F931F935D
:102E0000CF93DF93EC018B01FB01F0800E941A321B
:102E1000F81621F06F2DCE010E942232F801F180C8
:102E20002196CE010E941A32F81621F06F2DCE01A4
:102E30000E942232C801DF91CF911F910F91FF9024
:102E400008956AE571E087E490E00E94FD166CE564
:102E500071E089E490E00E94FD1660915E018BE4D0
:102E600090E00E9495166FE571E08CE490E00E947E
:102E7000FD1661E671E08EE490E00E94FD1663E6C7
:102E800071E080E590E00E94FD1665E671E082E564
:102E900090E00E94FD166091670184E590E00E9439
:102EA00095166091680185E590E00C949516CF9396
:102EB000DF9300D000D000D0CDB7DEB720E030E007
:102EC00048EC52E40E9464340E947E337E836D831A
:102ED000BE016B5F7F4F85E390E00E94FD1620E00E
:102EE00030E040E251E46091700170917101809195
:102EF0007201909173010E9464340E947E337C833E
:102F00006B83BE016D5F7F4F87E390E00E94FD16EB
:102F100020E030E040E251E460916C0170916D017D
:102F200080916E0190916F010E9464340E947E3303
:102F30007A836983BE016F5F7F4F89E390E00E94CF
:102F4000FD1626960FB6F894DEBF0FBECDBFDF91FB
:102F5000CF9108952F923F924F925F926F927F92FE
:102F60008F929F92AF92BF92CF92DF92EF92FF9299
:102F70000F931F93CF93DF93CDB7DEB7AC970FB608
:102F8000F894DEBF0FBECDBF8E01085F1F4F087FD4
:102F90009AE0292E312C0E94A015892B91F5809161
:102FA000900490919104A0919204B0919304843282
:102FB00025E09207A10520E8B20709F066C08091DC
:102FC00098044091940450E090E09C01240F351F38
:102FD000215031092233310580F44150510969E90A
:102FE00074E080569B4F0E942A358091D2049091C4
:102FF0009404890F81508093D20421E0221A310871
:1030000051F62091ED042223A9F08091F604882343
:1030100079F09091EE04903709F4EEC108F00BC1FD
:10302000923009F485C108F0EEC0913009F443C133
:103030001092ED048091F704882309F43EC3809137
:1030400008058D3008F0D0C5833008F434C3809172
:10305000F904853609F02FC38091FA04883109F00C
:103060002AC30E94840220910D0130910F01311179
:10307000C4C2609310017093110180931201909368
:1030800013013F5F30930F01BBC2843237E09307D7
:10309000A10530E8B30799F58091D204813148F059
:1030A0009091A004923339F40E94E1001092D2046E
:1030B000A4CF8330D8F39091A0049432B9F79091C3
:1030C000A104953611F00C940D2B9091A204983127
:1030D00011F00C94572BF82E40E1481710F480E1C2
:1030E000F82E4F2D50E060EA74E088EF94E00E94E3
:1030F0002A35F092080551E05093F704D7CF88366F
:10310000EAE39E07A105E0E8BE0709F060C08091F0
:103110009404883008F471CFE0909A04F0909B04F6
:10312000FE24EF24FE246091980470919904762780
:1031300067277627072E000C880B990B0E94AF3368
:1031400020E030E04AE754E40E9405332B013C01C3
:103150004092DF045092E0046092E1047092E20435
:10316000B701FF0C880B990B0E94AF3320E030E0D1
:103170004AE754E40E9405336B017C01C092E304EA
:10318000D092E404E092E504F092E6048090E90431
:103190009090EA04A090EB04B090EC04A501940197
:1031A000C301B2010E945F347724739418164CF067
:1031B000A5019401C701B6010E945F3418160CF0F6
:1031C000712C7092E804F1E0F093E70416CF84329A
:1031D0009105A105B10589F4F09094044F2D50E0BC
:1031E00068E974E08EEE94E00E942A35F092F604CD
:1031F000AA24A394A092ED0400CFB7FFFECE8432A0
:1032000009F0FBCEE9CF933009F4B1C0943009F056
:103210000FCF823008F40CCF6091EF04823009F4B4
:10322000E4C08091F004813009F0DFC060930C01AC
:103230008BE390E07AC0933709F446C130F59137BB
:1032400009F40EC1923709F0F3CE823008F4F0CEC3
:103250009091EF04292F2F70283008F0E9CE929535
:103260009F70983008F0E4CE209357019093580156
:10327000823041F081E09091F004911101C080E032
:10328000809359010E94D716D3CE943709F437C1E1
:10329000983709F0CDCE65EA87E590E00E94951653
:1032A00088E198E00FB6F894A895809360000FBE6F
:1032B00090936000FFCF853008F4BACE8091EF0480
:1032C000813108F0B5CE482F50E09A01220F331F0C
:1032D000240F351F255F3E4FF901E759FF4F9091AD
:1032E000F004908369014AE6C40ED11C9091F10468
:1032F000D6019C935901BBE6AB0EB11C9091F20430
:10330000D5019C93B3E08B9F700111246081C701AC
:1033100002960E949516F6016081C70103960E94ED
:103320009516D5016C91C70104960E94951680CE22
:10333000833008F47DCE6091EF047091F00476271D
:103340006727762790E080E00E94AD3320E030E0F0
:1033500048EC52E40E9405336093E9047093EA0458
:103360008093EB049093EC040E94571761CE853054
:1033700008F45ECE6091EF047091F0047627672721
:10338000762790E080E00E94AD3320E030E040E21C
:1033900051E40E9405336093700170937101809332
:1033A0007201909373016091F1047091F204762799
:1033B0006727762790E080E00E94AD3320E030E080
:1033C00040E251E40E94053360936C0170936D01FB
:1033D00080936E0190936F016091E9047091EA040B
:1033E0008091EB049091EC04BFCF81E0613009F053
:1033F00080E080930B011CCE853008F419CE20911B
:10340000EF049091F1048091F004882331F1992325
:1034100021F181509150892798278927222309F487
:1034200007CE40915601421708F402CEBC01645108
:103430007109613E714008F0FBCD3091F2044317F1
:1034400008F4F6CD209350019093520180935101DE
:10345000309353010E94BB16EBCD90E080E0DECFAD
:10346000843008F4E5CD3091EF048FEF830F843181
:1034700008F0DECD9091F0048FEF890F843108F0D1
:10348000D7CD8091F1044FEF480F443108F0D0CDF3
:1034900030935401909355018093560190915001BF
:1034A000891758F48093500190915301891738F48B
:1034B000809353010E94BB1604C020E0F5CF211178
:1034C000F9CF0E94A916B4CD843008F4B1CD209173
:1034D000EF04253608F0ACCD9091F004953608F055
:1034E000A7CD8091F104853608F0A2CD2093690123
:1034F00090936A0180936B010E94EB1699CD823004
:1035000008F496CD4091EF0441111DC0843008F4B9
:103510008FCD8091F1046091F004653608F088CD7C
:10352000853608F085CD681708F082CD6093670175
:103530008093680184E590E00E949516609168018F
:1035400085E590E0F2CE453079F4823009F470CD13
:103550008091F0049FEF980F9A3508F069CD809321
:103560005E010E94211764CD843008F461CD209162
:10357000F00430E0443011F4245631098091F10414
:1035800090E0443099F484569109853691050CF009
:103590004FCD281739070CF04BCD30935B012093AA
:1035A0005A0190935D0180935C01DBCF463089F432
:1035B000873991050CF03CCD2817390708F038CD34
:1035C0003093600120935F019093620180936101C9
:1035D000C8CF473009F02CCD873991050CF028CDA4
:1035E0002817390708F024CD309364012093630134
:1035F0009093660180936501B4CF3F3F09F041CDC0
:10360000222309F4E9C222E0812C912C540130914B
:103610000F01321708F44FC0C0901001D090110173
:10362000E0901201F0901301AB01BC014C195D094F
:103630006E097F09481559056A057B05E0F181E0AF
:1036400080930E0110920D018FEF8093190110925B
:103650001A0110924E011092360110923701109209
:1036600038011092390110923A0110923B011092E8
:103670003C0110923D0110923E0110923F011092C8
:1036800040011092410110923101109232011092CA
:1036900033011092340110924201109243011092B2
:1036A0004401109245011092460110924701109278
:1036B0004801109249011092F7048091090588236E
:1036C00009F41DC180913C05893208F416C180912E
:1036D0000B05853609F011C180910C058A3009F07F
:1036E0000CC180910E01811108C180910D018823C8
:1036F00009F403C10E9484026093150170931601BE
:103700008093170190931801809114058F70809316
:1037100019016091160570E090E080E00E94AF33DF
:1037200020E030E048E452E40E9405336093360123
:103730007093370180933801909339016091170598
:1037400070E090E080E00E94AF3320E030E048E499
:1037500052E40E94053360933A0170933B018093D9
:103760003C0190933D0160912105709122057627DF
:1037700067277627072E000C880B990B0E94AF3322
:1037800020E030E040E251E40E94053360932D01D7
:1037900070932E0180932F01909330016091230547
:1037A00070912405762767277627072E000C880B53
:1037B000990B0E94AF33609325017093260180938B
:1037C0002701909328016091290570912A05762799
:1037D00067277627072E000C880B990B0E94AF33C2
:1037E00020E030E040E251E40E9405336093310173
:1037F00070933201809333019093340120912B0513
:10380000822F90E0BC0160587109213820F460E8F3
:1038100070E0681B790B072E000C880B990B0E9437
:10382000AF3320E030E048EC52E40E9405336B01F6
:103830007C0120E030E0A9010E94003387FD11C225
:1038400020E030E040E85FE3C701B6010E945F344A
:10385000181634F4C12CD12C50E8E52E5FE3F52E78
:10386000C0922901D0922A01E0922B01F0922C0102
:103870006091120570911305762767277627072E2A
:10388000000C880B990B0E94AF3320E030E040E23F
:1038900051E40E94053360933E0170933F01809391
:1038A0004001909341016091310570E090E080E02B
:1038B0000E94AF3320E030E040E05FE30E946434D8
:1038C00060934201709343018093440190934501BA
:1038D0006091320570E090E080E00E94AF3320E01C
:1038E00030E040E05FE30E946434609346017093EF
:1038F0004701809348019093490110920905709007
:103900000D0180913D05882309F445C0809146054D
:10391000873008F43EC080913F058536D1F580910F
:1039200040058D31B1F580910E01811132C07720B3
:1039300081F160914105709142058091430590911C
:1039400044050E940F354B015C017C016B0120E0B6
:1039500030E0A9010E94003387FD87C120E030E0FC
:1039600040E85FE3C501B4010E945F34181634F4E7
:10397000C12CD12C40E8E42E4FE3F42EC0924A0132
:10398000D0924B01E0924C01F0924D0181E0809386
:103990004E0110923D05772041F0809119018F3F33
:1039A00021F08150853008F064C110921C010E9402
:1039B0008402C0902101D0902201E0902301F09078
:1039C000240160932101709322018093230190933D
:1039D0002401C114D104E104F10409F056C180911D
:1039E0000B01882351F090910D01992331F081E072
:1039F00090911401911101C080E080934F0180915A
:103A00000E0124EFC22EDD24D394E12CF12C882367
:103A100031F098EBC92E9BE0D92EE12CF12C0E94BD
:103A2000840280906F0290907002A0907102B0901A
:103A30007202681979098A099B096C157D058E0542
:103A40009F0500F188E698E0A0E0B0E8F8018083E7
:103A50009183A283B38385E0848384E28087118687
:103A6000828785E6838788E18487C8010E94BB1529
:103A70000E94840260936F027093700280937102BF
:103A80009093720280910D0190910701992309F49E
:103A90003EC190916E0291113AC190916D029923AD
:103AA00009F435C1F0904F01FF2009F430C188239B
:103AB00009F440C0FF24F39480911901853009F482
:103AC000F12C80910E0181113AC00E9484028090F5
:103AD000690290906A02A0906B02B0906C02681923
:103AE00079098A099B09643671058105910510F1F0
:103AF00088E698E0A0E0B0E8F80180839183A28393
:103B0000B38386E0848384E280871186828785E69A
:103B100083878AE0848782E08587C8010E94BB157D
:103B20000E9484026093690270936A0280936B0220
:103B300090936C0280910D01882309F4EAC0809172
:103B40006802811110C080916E02882321F080915B
:103B50005701813041F0FF2009F4DBC0809158010A
:103B6000813009F0D6C080910E018111D2C00E942F
:103B70008402C0906402D0906502E0906602F090EA
:103B800067026C197D098E099F09643F71408105A8
:103B9000910508F4BEC088E698E0A0E0B0E8F8011E
:103BA00080839183A283B38385E0848384E28087CA
:103BB0001186828785E683878DE18487C8010E940C
:103BC000BB150E9484026093640270936502809327
:103BD0006602909367029DC026E0E8E88E2EE3E13E
:103BE0009E2EA12CB12C13CD10920E0110920F011C
:103BF00010921001109211011092120110921301F3
:103C000081E080930D0180910405853608F084E6FB
:103C1000809314018091FB04982F9F709093190159
:103C2000282F221F2227221F20931A0191509530FE
:103C300020F09091FD0490931B0190E064E0959535
:103C400087956A95E1F78370809335010E9484021D
:103C500060931501709316018093170190931801DA
:103C60002ACDC12CD12C7601FBCDC12CD12C7601D3
:103C700085CE80911B018D3320F081E080931C0163
:103C800096CE823308F491CE92CE6C197D098E09BE
:103C90009F090E94AD3320E030E04AEF53E40E94D8
:103CA00005339B01AC0160911D0170911E01809153
:103CB0001F0190912001E0911C01E11150580E94D8
:103CC00094326B017C0120E030E0A9010E940033B6
:103CD00087FD19C020E030E040E85FE3C701B6018E
:103CE0000E945F34181634F4C12CD12C30E8E32E36
:103CF0003FE3F32EC0921D01D0921E01E0921F01FE
:103D0000F09220016CCEC12CD12C7601F3CF811121
:103D1000D7CE109268020E948402C0906002D090B8
:103D20006102E0906202F09063026C197D098E09D5
:103D30009F09643671058105910508F4F5C08091ED
:103D40000D018111ACC088E698E0A0E0B0E8F80170
:103D500080839183A283B38387E0848384E2808716
:103D6000118682E382871386148681E8858783EC37
:103D70008687C8010E94BB150E9484026B017C01EA
:103D800001E00E9484026C197D098E099F0965304B
:103D900071058105910508F082C00E94A015892B4C
:103DA00081F78091900490919104A0919204B09138
:103DB00093048432F5E09F07A105F0E8BF07F9F40A
:103DC000809198044091940450E090E09C01240F6D
:103DD000351F215031092233310598F641505109E0
:103DE00069E974E080569B4F0E942A358091D20485
:103DF00090919404890F81508093D204C2CF843271
:103E000027E09207A10520E8B20779F51091D204C6
:103E1000113148F09091A004923339F40E94E100EE
:103E20001092D204AECF1330D8F39091A004943204
:103E3000B9F79091A104953611F00C94342B909120
:103E4000A204983111F00C94722B113108F010E19A
:103E5000412F50E060EA74E088EF94E00E942A3538
:103E6000109308050093F704DBCF84329105A10578
:103E7000B10579F410919404412F50E068E974E0A1
:103E80008EEE94E00E942A351093F6040093ED0420
:103E900078CFB7FF76CF843209F073CFEBCF0E9493
:103EA0008402609360027093610280936202909337
:103EB000630210910D01112309F489C1609125015C
:103EC00070912601809127019091280160935C02F6
:103ED00070935D0280935E0290935F02112309F458
:103EE00081C180912D0190912E01A0912F01B0915F
:103EF00030018093730290937402A0937502B09383
:103F00007602112309F477C18091290190912A0149
:103F1000A0912B01B0912C018093A7029093A8024D
:103F2000A093A902B093AA02A0906C01B0906D0179
:103F3000C0906E01D0906F01AD8EBE8ECF8ED8A294
:103F4000C0907302D0907402E0907502F0907602F7
:103F5000C9A2DAA2EBA2FCA2A090A702B090A8028C
:103F6000C090A902D090AA02ADA2BEA2CFA2D8A6AC
:103F70000E94840200917D0410917E0420917F04B0
:103F800030918004601B710B820B930B00918104B4
:103F9000109182042091830430918404601771078A
:103FA0008207930708F45EC280917004882309F4A5
:103FB0004FC20E94840200910604109107042091D0
:103FC0000804309109046B017C01C01AD10AE20A8D
:103FD000F30AC9A6DAA6EBA6FCA624E034E03C8FDF
:103FE0002B8F312C212C01E044244A94542C320193
:103FF00080910A0490910B04281639060CF028C20F
:10400000AB8DBC8D18968D919C91092E000CAA0B3E
:10401000BB0BA9A4BAA4CBA4DCA48A159B05AC0550
:10402000BD050CF0CAC0AB8DBC8D1C968C911C9745
:104030008111C3C01C960C931C971A96CD90DC90EE
:1040400080910404909105041C141D040CF0FDC122
:1040500020910A012813D8C0E5E8F0E0149117FD7B
:10406000A2C00E94AA00112319F0123009F09EC1CB
:104070000D2C000CEE08FF0860E072E18AE790E08A
:10408000A70196010E94303249015A01DA01C901A3
:104090000197A109B1098F3F9105A105B10509F06B
:1040A0000CF46BC160E472E48FE090E0A70196012C
:1040B0000E9430322150310941095109123009F072
:1040C0001DC182E02F3F31054105510509F00CF477
:1040D0005BC060E970ED83E090E0A70196010E946B
:1040E0003032215031094109510983E02F3F310518
:1040F0004105510509F00CF447C068E478EE81E011
:1041000090E0A70196010E94303221503109410907
:10411000510984E02F3F310541055105A9F1A4F172
:1041200064E274EF80E090E0A70196010E943032D3
:10413000215031094109510985E02F3F31054105E1
:10414000510511F108F162E17AE780E090E0A70102
:1041500096010E943032215031094109510986E00F
:104160002F3F31054105510579F070F08AE0B59493
:10417000A794979487948A95D1F7A501940121502B
:1041800031094109510987E09091B100987F892B4D
:104190008093B100113009F436C1123009F445C1E1
:1041A000112309F4F2C080910A0490910B04019745
:1041B0002816390611F4109270042FEF221A320AD1
:1041C0004B8D5C8D4B5F5F4F5C8F4B8F11CF609140
:1041D000D3047091D4048091D5049091D6040E94A8
:1041E000AF3374CE8091D7049091D804A091D904B4
:1041F000B091DA047ECE8091DB049091DC04A09132
:10420000DD04B091DE0488CE2F3F69F680930A0169
:10421000E5E8F0E014911F3F31F2113031F140F048
:10422000123009F444C017FDBECF0E94AA001DCF72
:1042300014BC15BC24B5226024BD25B5216025BD64
:104240009C013327F901EB52FF4FE491F0E0EE0FB0
:10425000FF1FEF53FF4F45915491F901E751FF4F75
:10426000E491E093250210E0FCCE109280001092C1
:10427000810020918100286020938100209181009D
:104280002160209381009C013327F901EB52FF4FFD
:10429000E491F0E0EE0FFF1FEF53FF4F4591549173
:1042A000F901E751FF4FE491E0932402DACE109236
:1042B000B0001092B1002091B00022602093B000B5
:1042C0002091B10021602093B1009C013327F901B6
:1042D000EB52FF4FE491F0E0EE0FFF1FEF53FF4F63
:1042E000459154915093B3024093B202F901E751C2
:1042F000FF4FE491E093B40212E0B3CE2F3F3105BB
:104300004105510509F00CF44FC068E478EE81E0F6
:1043100090E0A70196010E943032215031094109F5
:10432000510984E0111109CF83E02F3F3105410588
:10433000510539F134F162E17AE780E090E0A701BC
:1043400096010E943032215031094109510984E01F
:104350002F3F310541055105A1F098F09AE0B59441
:10436000A794979487949A95D1F7A5019401215029
:1043700031094109510985E004C09C0181E0111116
:1043800003CF95B5987F892B85BD27BD40922A0222
:1043900050922B0260922C0270922D0280916E003E
:1043A000826080936E00FFCE82E0E9CF0D2C000C7E
:1043B000EE08FF0860E072E18AE790E0A70196014D
:1043C0000E943032215031094109510991E02115F3
:1043D0003105F1E04F0751056CF068E478EE81E0BB
:1043E00090E0A70196010E94303221503109410925
:1043F000510993E0113009F0CDCE80918100887F82
:10440000892B80938100309389002093880040920B
:10441000260250922702609228027092290280910F
:104420006F00826080936F00BECE2093B3004092F5
:10443000B5025092B6026092B7027092B8028091B3
:104440007000826080937000AECE0E94A103ABCE5C
:104450000E94840260937D0470937E0480937F04A5
:10446000909380048091700481110AC0809185042A
:1044700090918604892B21F0109286041092850475
:104480006DA17EA18FA198A59F7720E030E040E448
:104490005FE30E945F3418160CF061C0C090750491
:1044A000D0907604E0907704F090780480917904BD
:1044B00090917A04A0917B04B0917C04C80ED91E1F
:1044C000EA1EFB1E0E948402C616D706E806F906FD
:1044D00008F045C0809185049091860497FD3FC007
:1044E0008091700481112BC00E94840260930604A5
:1044F00070930704809308049093090481E08093EB
:10450000700482E090E090930B0480930A04109270
:104510000D0410920C0488EB91E090930F048093AB
:104520000E04109210048CE291E090931204809398
:1045300011041092140410921304109215040E9496
:10454000840260937504709376048093770490934B
:10455000780481E090E0909386048093850429A1FB
:104560003AA14BA15CA16D8D7E8D8F8D98A10E948B
:104570005F3418160CF0AEC020E030E0A9016D8D5C
:104580007E8D8F8D98A10E945F3418160CF0A2C00A
:10459000C0907104D0907204E0907304F0907404A1
:1045A00058E8C50E53E1D51EE11CF11C0E9484029F
:1045B000C616D706E806F90608F08CC08091850477
:1045C00090918604009719F002970CF483C08091B3
:1045D000700481116FC00E9484026093060470937E
:1045E0000704809308049093090481E08093700489
:1045F00087E090E090930B0480930A0410920D04DE
:1046000010920C0488EB9BE090930F0480930E04AF
:104610001092100484E690E09093120480931104A9
:1046200084EC99E090931404809313041092150481
:1046300088EC90E0909317048093160480ED97E047
:10464000909319048093180410921A048CE291E05C
:1046500090931C0480931B048CED95E090931E04B2
:1046600080931D0410921F0480E991E0909321042F
:104670008093200488EE93E0909323048093220497
:104680001092240484EF91E09093260480932504F3
:1046900090932804809327041092290488E592E0DF
:1046A00090932B0480932A0410922D0410922C04D2
:1046B00010922E040E94840260937104709372041D
:1046C000809373049093740482E090E09093860446
:1046D0008093850490910D01992309F497C18091ED
:1046E00019018F3F09F492C1FF24F3948F3009F030
:1046F000F12C11E0853009F010E02FEF280F233066
:1047000008F059C11092070181E080936E028090F9
:104710005C0290905D02A0905E02B0905F0220E08B
:1047200030E048E453E4C501B4010E945F34181638
:104730000CF030C11092AE021092AD028FEF90E0FB
:10474000909306018093050100916E0280915A02B8
:10475000081789F081E0809357028093520280937A
:1047600051020E948402609353027093540280931A
:1047700055029093560200935A02C090AD02D09019
:10478000AE028091580290915902C816D906A9F03C
:1047900081E08093570280935202109251020E944E
:1047A0008402609353027093540280935502909355
:1047B0005602D0925902C092580280915702882323
:1047C000A9F00E9484028090530290905402A0901D
:1047D0005502B0905602681979098A099B096A3F07
:1047E00071058105910510F010925702A0904F01BC
:1047F000AB8EFF2009F457C1188E198E1A8E609166
:10480000540170E0AE01485E5F4F85E993E00E947D
:10481000C900188E198E1A8E6091550170E0AE0194
:10482000485E5F4F89E593E00E94C900188E198E9B
:104830001A8E6091560170E0AE01485E5F4F8DE1C7
:1048400093E00E94C900E0915601EE23E9F0E6955D
:104850008E2F90E079F00197DC01AA0FBB1FA80F03
:10486000B91FA35EBC4F8FEF8C9311961C921197CA
:1048700012961C9223E0E29FF0011124E35EFC4FAC
:104880008FEF8083118212820E948402009149027C
:1048900010914A0220914B0230914C02601B710B27
:1048A000820B930B603171058105910508F459C0A5
:1048B000009103011091040180910501909106017E
:1048C000801B910B8630910514F085E090E08B3FC2
:1048D000FFEF9F0714F48BEF9FEF080F191F109342
:1048E0000401009303010E94F80DF1101DC6AB8C6A
:1048F000AA2009F419C680916E02882309F4FCC528
:1049000060916A0170E090E080E00E94AF3320E0A7
:1049100030E048EC52E40E9405336B017C01B801A1
:10492000110F880B990B0E94AF33A70196010E94CB
:1049300064340E9477336F3F710519F014F06FEF04
:1049400070E077FD60E06093F6030E9490020E94A1
:1049500084026093490270934A0280934B029093C1
:104960004C02AC960FB6F894DEBF0FBECDBFDF9100
:10497000CF911F910F91FF90EF90DF90CF90BF905C
:10498000AF909F908F907F906F905F904F903F90EF
:104990002F90089520E030E048E453ECC501B401C5
:1049A0000E94003387FFCACE81E090E09093AE0270
:1049B0008093AD02C3CE20916E028F3089F0222306
:1049C00039F080910701811103C081E080935B027F
:1049D00081E08093070110926E028EE190E0B0CEEC
:1049E000222339F080910701811103C081E0809377
:1049F0005B021092070110926E022EE130E03093BC
:104A0000060120930501F92E10E09ECEC0905C02B5
:104A1000D0905D02E0905E02F0905F0220E030E016
:104A200048E453E4C701B6010E945F34181694F4B9
:104A30001092070181E080936E021092AE021092F4
:104A4000AD028FEF90E0909306018093050110E096
:104A5000F12C7ACE20E030E048E453ECC701B601F7
:104A60000E94003387FF0CC01092070181E0809301
:104A70006E0281E090E09093AE028093AD02E1CFB0
:104A800080916E02882339F080910701811103C063
:104A900081E080935B0281E08093070110926E02B7
:104AA0008EE190E0D0CFE0905702AB8CA11043C5CF
:104AB000188E198E1A8E6091540170E0AE01485E16
:104AC0005F4F85E993E00E94C900188E198E1A8EF7
:104AD0006091550170E0AE01485E5F4F89E593E05B
:104AE0000E94C900E110DFC080910701882309F40A
:104AF00019C380915B02882321F010923B0210922F
:104B00005B0280914F0181110E949E0580916D0290
:104B1000811152C10E9484020091190310911A035D
:104B200020911B0330911C035B016C01A01AB10A98
:104B3000C20AD30AA6019501283883E13807410546
:104B4000510508F40DC181E080936D02ACC08091E5
:104B50005202882341F105E913E0D12CC12C809148
:104B600054018C151D0409F0A4F409E513E0D12CBF
:104B7000C12C809155018C151D04A9F0A4F06CE3A3
:104B8000C8010E94FB043FEFC31AD30A0D5F1F4FF9
:104B9000F0CF6CE3C8010E94FB042FEFC21AD20AC7
:104BA0000D5F1F4FDCCF80915102882309F47BC039
:104BB0000DE113E0D12CC12C809156018C151D0400
:104BC00009F00CF470C06CE3C8010E94FB044FEFC5
:104BD000C41AD40A0D5F1F4FEFCF55E5590F80E07F
:104BE0009BEA6E2DAA2021F0AA9C612D09F06F5F2F
:104BF000662309F446C0969F090E90E0911D569FCA
:104C0000050E50E0511D869F080E80E0811D112485
:104C1000692F6083518382830F5F1F4F339621502A
:104C20003F4FC2C471110BC08B9D080E80E0811DE7
:104C300011245D2D581B852F5AEA590FD7C4592FBF
:104C40005095892F90E0CDCFA1110FC0711109C0EF
:104C50008B9D080E80E0811D11245D2D581B8B5A01
:104C6000F1CF892F809550E0BCCF711106C055E57A
:104C7000590F8D2D891B952FF6CF5AEA590F8C2D80
:104C8000F9CF80E050E0C5CF60916B0170E090E01B
:104C900080E00E94AF3320E030E048EC52E40E9414
:104CA00005330E94320E80911A018111EDCD0E94D0
:104CB000840200914D0210914E0220914F023091DA
:104CC0005002601B710B820B930B623371058105DF
:104CD000910508F4D9CD80905C0290905D02A0907F
:104CE0005E02B0905F026091470270914802072E09
:104CF000000C880B990B0E94AF33A50194010E9410
:104D000093320E9477330091AD021091AE020115EB
:104D1000110509F080C3603171055CF020E030E0DE
:104D200048E453E4C501B4010E945F3418160CF442
:104D300084C380914302909144020196909344026F
:104D400080934302109246021092450203970CF49E
:104D50008AC310924202109244021092430283C30B
:104D6000A09156010A2F10E0D8010E944F3228E886
:104D700033E140E050E00E943032021713070CF498
:104D8000980140917C0150917B0160917A01EDE1A5
:104D9000F3E090E080E0801791070CF084CF821759
:104DA000930734F460835183428301963396F3CFA3
:104DB000108211821282F9CFD0904F01D1100EC013
:104DC000188E198E1A8E6091560170E0AE01485E01
:104DD0005F4F8DE193E00E94C90065CF80911A0179
:104DE000882309F473C0011171C0188E198E1A8EB0
:104DF0006091560170E0AE01485E5F4F8DE193E037
:104E00000E94C90080915601882309F44CCF082FD5
:104E1000069510E098010230110514F422E030E00C
:104E2000690192E0C91AD10890E00F5F1F4F08177F
:104E300019071CF08C01015011090E94840224EF13
:104E400031E040E050E00E94623280E020FD86E4E4
:104E5000F601EE0FFF1FEC0DFD1DE35EFC4F98EC1D
:104E60000C151D0544F0908381831282AFEFCA1A9E
:104E7000DA0A3396F5CF0E942801182F0E946501A7
:104E8000112361F090918B0120918A013091890169
:104E900030931D0320931E0390931F03882309F46E
:104EA00002CF809156018150990B20918B01309156
:104EB0008A01FC01EE0FFF1FE80FF91FE35EFC4FB4
:104EC00080918901808331832283EDCE80907302AB
:104ED00090907402A0907502B09076022DEC3CEC9C
:104EE0004CEC5DE3C501B4010E94003387FF03C0B1
:104EF0000E94350FD8CE2DEC3CEC4CEC5DE3C501A7
:104F0000B4010E945F3487FD53C040906C01509003
:104F10006D0160906E0170906F01A3019201C50157
:104F2000B4010E9493326D8F7E8F8F8F98A3A3015F
:104F30009201609170017091710180917201909164
:104F400073010E9493329B01AC016D8D7E8D8F8D1C
:104F500098A10E9405332DEC3CEC4CEC5DE30E94E3
:104F6000003318162CF10E9484022AEF30E040E052
:104F700050E00E9462322170332744275527609108
:104F8000560170E0EDE1F3E090E080E0AFEF8617CE
:104F900097070CF088CE211531054105510531F4F4
:104FA000A0831182128201963396F1CF1082F9CF3D
:104FB00080913B02811117C02DEC3CEC4CEC5DE381
:104FC000C501B4010E945F3487FD0DC081E080936C
:104FD0003B020E94840260933702709338028093F0
:104FE000390290933A020E942801182F0E9465010D
:104FF000082F1111FEC28823B1F1C0905601C6944A
:10500000D12C0E942801182F0E946501082F111130
:1050100003C0882309F447CE2091560130E0409127
:105020008B0150918A0160918901EDE1F3E090E0FC
:1050300080E0821793070CF036CE112349F08C15CF
:105040009D055CF0011109C010821182128208C016
:105050000023D1F38C159D05BCF3608351834283FB
:1050600001963396E6CF10913B02809100018111A9
:105070000EC0111123C000E0E12C10936802E11072
:1050800003C0002309F448C00E945C0F0CCE11231A
:1050900091F30E9484028090370290903802A09091
:1050A0003902B0903A02681979098A099B0969386E
:1050B000734181059105E8F2109200010E9484027B
:1050C0008090370290903802A0903902B0903A0256
:1050D000681979098A099B09EE24E39469387341B8
:1050E0008105910508F0E12C0E9484028090330232
:1050F00090903402A0903502B09036026819790978
:105100008A099B091E2D693873418105910508F0B4
:10511000B4CF0D2D1D2DB1CF60E0809158010E94BC
:105120004610C1CD002309F4BECDAB8CAA2009F4F2
:1051300047CE20905401C114D10411F020905501A4
:10514000312C23E0221631040CF488C0C10163E045
:1051500070E00E94F5346D8FE72E05E913E0CD284D
:1051600011F009E513E080905C0290905D02A09040
:105170005E02B0905F0220E030E0A901C501B401F9
:105180000E945F3418160CF06DC020E030E048E457
:1051900053E4C501B4010E94003387FD6DC0C50111
:1051A000B4010E9477334B015C01C0907601C9A223
:1051B000D0907501DDA2C0907401C9A60E9484023E
:1051C00040903E0250903F02609040027090410239
:1051D0009B01AC01241935094609570929013A01F7
:1051E000A5019401285C310941095109A5EBBFEFE4
:1051F0000E945D3228E53DE440E050E00E943032FC
:10520000DA01C901805B9F4FAF4FBF4F8B3F9105C4
:10521000A105B10520F08AEF90E0A0E0B0E0853074
:105220009105A105B10520F485E090E0A0E0B0E093
:10523000481659066A067B0690F16801B12CA12C2C
:10524000A214B304A4F56CE3C6010E94FB043FEF73
:10525000A31AB30A43E0C40ED11CF2CF31E03D8F54
:10526000E12C7BCF20E030E048E453ECC501B401F1
:105270000E945F341816BCF4D12CC12CC214D30484
:1052800054F468E2C8010E94FB044FEFC41AD40A28
:105290000D5F1F4FF3CF0E94F80D0E94900261E056
:1052A000809157013CCFC501B40190587ACFED8D64
:1052B000FE2D2E163F060CF4F10131016E1A7F0A05
:1052C00077FE02C0712C612C20913C0230913D028E
:1052D000621673060CF4930137FF02C030E020E041
:1052E0004901880C991C820E931E800E911E0EEFB0
:1052F0001FEFAF014F5F5F4F5E8F4D8FB9A4AB2C97
:10530000B12CBAA6A9A674E6472E512CDDA0CD2C4F
:10531000D12CDEA2CDA259A1452F50E05AA349A31A
:10532000AD8CBE8CA016B1060CF44EC0C801820F25
:10533000931F8215930508F041C017FD06C044E68F
:10534000C42ED12C0E171F071CF05EE1C52ED12CE8
:10535000540146E0A41AB10849A55AA54C9DC001C4
:105360004D9D900D5C9D900D1124B2010E94F5346D
:10537000D5016C935401B5E0AB1AB1084DA15EA103
:105380004C9DC0014D9D900D5C9D900D1124B2016E
:105390000E94F534D5016C935401B4E0AB1AB10806
:1053A00049A15AA14C9DC0014D9D900D5C9D900D51
:1053B0001124B2010E94F534D5016C930F5F1F4F89
:1053C000B3E08B0E911CACCF809101019091020152
:1053D000280F391F30933D0220933C028FEF9FEF3F
:1053E000261537052CF41216130634F081E090E0F0
:1053F00090930201809301010E94F80D0E94900297
:105400000E94840260933E0270933F0280934002A8
:105410009093410244CF0130110509F08ACC613FDD
:105420007F4F0CF086CC20E030E048E453ECC5011F
:10543000B4010E94003387FF7CCC8091450290919B
:1054400046020196909346028093450210924402D0
:105450001092430203973CF081E080934202109245
:10546000460210924502C501B4010E947733709341
:1054700048026093470280914F01882391F1809107
:105480005501E9E5F3E0012B21F080915401E5E9B4
:10549000F3E090E0609179015091780140917701BB
:1054A0002091420230E021110DC020E02817390779
:1054B000C4F420FD12C04083518362832F5F3F4FAD
:1054C0003396F4CF20E0281739075CF440835183EA
:1054D00062832F5F3F4F3396F6CF10821182128284
:1054E000EDCF0E94840260934D0270934E02809330
:1054F0004F0290935002C8C96091690170E090E03A
:1055000080E00E94AF3320E030E048EC52E40E949B
:10551000053320911D0130911E0140911F015091D2
:1055200020010E946434F9C9C12CD12C20E8E22E5C
:105530002FE3F22EF4C9E1100ACB112309F4D4CAE7
:105540000E949E050E94840200912F021091300259
:105550002091310230913202601B710B820B930B50
:105560006E3171058105910508F49DCB0E9484027E
:1055700060932F0270933002809331029093320235
:1055800040912E024E5F40932E02EDE1F3E030E0B9
:1055900020E010E000E085E5C82EE12C9BEAD92E42
:1055A0005AEAB52E68ECA62E6091560170E00617F7
:1055B00017070CF069CBC9010E94E134640F862FF4
:1055C000880F880F880F982F9C9D090E90E0911DE1
:1055D0001124A62FA074762F707267FD35CBA11110
:1055E00021CB7111FACA892F8095592F982F80E00D
:1055F000F8CAC0905601C694D12C882309F40CCD6A
:105600000E948402609333027093340280933502C7
:105610009093360210920001F0CC893220F487304A
:1056200010F40C9456189091A104953611F00C9436
:1056300056189091A2049D3111F00C945618F82E32
:10564000A8E0A81710F4A8E0FA2E4F2D50E060EA69
:1056500074E08EE395E00E942A35F0924605B1E0B1
:10566000B0933D050C945618193220F4173010F4FD
:105670000C94101F9091A104953611F00C94101FFA
:105680009091A2049D3111F00C94101F193008F074
:1056900018E0412F50E060EA74E08EE395E00E944C
:1056A0002A351093460500933D050C94101F89324E
:1056B00008F4B5CF9A3009F0B6CFF82E82E38F15F3
:1056C00010F4B2E3FB2E4F2D50E060EA74E08AE064
:1056D00095E00E942A35F0923C0591E090930905EF
:1056E0000C945618193210F29A3021F6133308F040
:1056F00012E3412F50E060EA74E08AE095E00E94F6
:105700002A3510933C05009309050C94101F0F9344
:105710001F93CF93DF938C01EB010E941A32888391
:10572000C80101960E941A328983CE01DF91CF9180
:105730001F910F9108950C941A321F920F920FB679
:105740000F9211242F933F938F939F93AF93BF9307
:105750008091D2039091D303A091D403B091D5034B
:105760003091D10323E0230F2D3758F50196A11D69
:10577000B11D2093D1038093D2039093D303A093C0
:10578000D403B093D5038091D6039091D703A09111
:10579000D803B091D9030196A11DB11D8093D60302
:1057A0009093D703A093D803B093D903BF91AF913F
:1057B0009F918F913F912F910F900FBE0F901F904F
:1057C000189526E8230F0296A11DB11DD2CF1F9276
:1057D0000F920FB60F9211242F933F934F935F9325
:1057E0006F937F938F939F93AF93BF93EF93FF93A9
:1057F0008091B5029091B602A091B702B091B80223
:10580000892B8A2B8B2BD1F19091B402E091B202BB
:10581000F091B3028081892780838091B5029091B5
:10582000B602A091B702B091B802181619061A066E
:105830001B069CF48091B5029091B602A091B7022C
:10584000B091B8020197A109B1098093B502909374
:10585000B602A093B702B093B802FF91EF91BF9147
:10586000AF919F918F917F916F915F914F913F91F8
:105870002F910F900FBE0F901F90189580910A01E5
:105880000E94A103EACFCF93DF93E6EFF3E08FEF1F
:10589000808312821182148613868FEF9FEFDC01C2
:1058A00087839087A187B28713821482158216821C
:1058B000C8E8D4E083E094E09E838D830E94D40303
:1058C0008AE0888380E896E9A8E9B0E089839A8332
:1058D000AB83BC838AE00E94AA0061E088810E94B9
:1058E0000E021092D2041092D3041092D40410929B
:1058F000D5041092D6041092D7041092D8041092B6
:10590000D9041092DA041092DB041092DC04109295
:10591000DD041092DE041092DF041092E004109275
:10592000E1041092E2041092E3041092E404109255
:10593000E5041092E6041092E7041092E8048AE964
:1059400099E9A9E9BEE38093E9049093EA04A0935E
:10595000EB04B093EC041092ED041092F604109254
:10596000F704109208051092090510923C05109258
:105970003D0510924605E4E0F4E0128213821482A1
:10598000158217821682ACE0B4E084E6ED0119922C
:105990008A95E9F71092700484E090E09183808307
:1059A0001092710410927204109273041092740495
:1059B0001092750410927604109277041092780475
:1059C00088EE93E0A0E0B0E08093790490937A04AD
:1059D000A0937B04B0937C0410927D0410927E040B
:1059E00010927F04109280048AE090E0A0E0B0E082
:1059F0008093810490938204A0938304B0938404E1
:105A00001092860410928504DF91CF910895CF9370
:105A1000DF93CDB7DEB7A3970FB6F894DEBF0FBE06
:105A2000CDBF789484B5826084BD84B5816084BD27
:105A300085B5826085BD85B5816085BD80916E002C
:105A4000816080936E00109281008091810082605D
:105A5000809381008091810081608093810080919A
:105A600080008160809380008091B1008460809389
:105A7000B1008091B00081608093B00080917A0085
:105A8000846080937A0080917A00826080937A00AB
:105A900080917A00816080937A0080917A0080689A
:105AA00080937A001092C1000E94D4030E943314A4
:105AB00080EC0E94CD030E945A020E945F024B01BB
:105AC0005C010AE0C02ED12CE12CF12C0E945F0277
:105AD000681979098A099B09683E73408105910517
