:107800000C94343C0C94463C0C94463C0C94463C02
:107810000C94463C0C94463C0C94463C0C94463CE0
:107820000C94463C0C94463C0C94463C0C94463CD0
:107830000C94463C0C94463C0C94463C0C94463CC0
:107840000C94463C0C94463C0C94463C0C94463CB0
:107850000C94463C0C94463C0C94463C0C94463CA0
:107860000C94463C0C94463C11241FBECFEFD8E04C
:10787000DEBFCDBF21E0A0E0B1E001C01D92AF3876
:10788000B207E1F70E949A3D0C94F83F0C94003C3B
:107890002A9808952A9A08958EBD0DB407FEFDCF4B
:1078A0008EB50895CF93DF93D82FC62F0E94483C02
:1078B00082E00E944C3C8D2F0E944C3C8C2F0E94F9
:1078C0004C3CDF91CF910C944A3C0F931F93CF9384
:1078D000DF93C82F062F142FD22F60E00E94523C56
:1078E000602F81E08C0F0E94523C612F82E08C0F50
:1078F0000E94523C6D2F83E08C0FDF91CF911F913E
:107900000F910C94523C0F931F93CF93DF93082F4A
:10791000D62F172FC42F0E94483C80E40E944C3C75
:1079200080E00E944C3C88E00E944C3C82EF0E9428
:107930004C3C84E20E944C3C85E00E944C3C8EED25
:107940000E944C3C802F0E944C3C812F0E944C3C5A
:107950008D2F0E944C3CC11101C0C0E38C2F0E94AE
:107960004C3C0E944A3C0E94483C81E80E944C3CAE
:10797000DF91CF911F910F910C944A3CF8940FB670
:10798000F894A895809160008861809360001092BF
:1079900060000FBE1CBCF0E0E0E00994CF92DF92E3
:1079A000EF92FF926B018091000181110AC060E0AB
:1079B00088E590E00E94E63FF999FECF81E0809350
:1079C0000001960183E0F60180935700E89507B621
:1079D00000FCFDCF4FE851E0AFE0B1E061E02F5097
:1079E0003140F901EA0FFB1F11968C9111979C9180
:1079F0008927982789270C0160935700E89511245F
:107A000012964A175B0769F785E0F60180935700E5
:107A1000E89507B600FCFDCF81E180935700E8951B
:107A2000FF90EF90DF90CF9008958F929F92BF923A
:107A3000CF92DF92EF92FF920F931F93CF93DF933A
:107A400000D000D01F92CDB7DEB76C017B010E9441
:107A5000483C80EA0E944C3C80E00E944C3C182F3D
:107A60000E944A3C10FD56C011FF42C082E0B82E71
:107A700014E90E94483C812F0E944C3C8E010F5F0C
:107A80001F4F4E0186E0880E911C80E00E944C3C06
:107A9000F80181938F018E169F06B9F78D818F7043
:107AA0008930E0F5F701808310E0F7018081181735
:107AB000B8F10E944A3C0E94483C85E00E944C3C40
:107AC0008CE20E944C3C8B2D0E944C3C80E00E943A
:107AD0004C3C0E944A3C898181110AC08A818830CD
:107AE00039F48B81813F21F481E09C81943209F04B
:107AF00080E00F900F900F900F900F90DF91CF913B
:107B00001F910F91FF90EF90DF90CF90BF909F90CB
:107B10008F900895BB24B39410E9ABCF88E0C2CF17
:107B20004601810E911C80E00E944C3CF401808350
:107B30001F5FBBCFCF93DF93CDB7DEB729970FB6CB
:107B4000F894DEBF0FBECDBF14BE0FB6F894A89553
:107B500080916000886180936000109260000FBE89
:107B6000F89484B18C6284B924980E944A3C80E5E0
:107B70008CBD81E08DBD0E94483C80EC0E944C3C55
:107B80000E944A3C8FE39CE90197F1F700C0000096
:107B900060E08AE20E94523C60E989E20E94523C25
:107BA00062E888E20E94523C24E241EF68E080E013
:107BB0000E94653C24E241EF68E084E00E94653C5D
:107BC0002FEF4FEF63E080E20E94653C2FEF4FEF15
:107BD00063E084E20E94653C64E080E60E94523CDF
:107BE00060E080E70E94523C60E08FE00E94523CDF
:107BF000EFE3FCE93197F1F700C0000087E590E082
:107C00000E94DE3F182F88E590E00E94DE3F198633
:107C1000153AF1F08823E1F004EF11E0BE01675F4F
:107C20007F4FCE0101960E94153D882331F0898552
:107C3000882319F08981813059F08FE99FE00197FD
:107C4000F1F700C000000150110941F70E94BE3C4D
:107C500060E087E590E00E94E63FC12CD12C7601E0
:107C600088248A94982C5401BE01675F7F4FCE010F
:107C700001960E94153D882309F46DC199859923C9
:107C800009F469C18981813009F058C0983009F040
:107C90004AC08B819C8198278927982790930E0151
:107CA00080930D018A81882321F010920E01109299
:107CB0000D016D817E818F8198850E94D03F6093F8
:107CC000090170930A0180930B0190930C011092AB
:107CD0000801109207018092030190920401A09282
:107CE0000501B0920601109202011092010110925A
:107CF000000140E850E06FEF70E08FE091E00E94FB
:107D0000D73F80910D0190910E0101978115984701
:107D100070F041E070E060E08EEE0E94833C1092D3
:107D20000E0110920D01C12CD12C76019DCF40E0A7
:107D300070E060E082E00E94833CF5CF823009F081
:107D400092C0983081F780910D0190910E01892B9E
:107D500051F3EA80FB80FE24EF24FE2460910101B0
:107D60007091020142E0E616F70609F07AC06E0152
:107D700024E0C20ED11C15E060910701709108014A
:107D800080910D0190910E016817790708F05DC090
:107D90006115F8E77F0708F062C0F60121916F01D5
:107DA000CB018F779927FC01E15FFE4F2083409044
:107DB0000301509004016090050170900601422675
:107DC000E8E0A30192015695479537952795F1E094
:107DD0004F225524662477247094609450944094E4
:107DE000411C511C611C711CF0E24F22F3E85F2220
:107DF000F8EB6F22FDEE7F2242265326642675267D
:107E0000E150F9F64092030150920401609205019D
:107E1000709206019B012F5F3F4F30930801209322
:107E200007018F37910571F46F57710990E080E079
:107E30000E94CE3C40E850E06FEF70E08FE091E0B0
:107E40000E94D73F115009F097CF80910101909186
:107E500002010196909302018093010164CF43E0F7
:107E6000B7018EEE68CF833009F05DCF60910D01D0
:107E700070910E016115710539F0809107019091A3
:107E800008016817790731F06091010170910201D2
:107E900044E0E7CFCB018F779927009731F0681B3B
:107EA000790B90E080E00E94CE3C8091030190919C
:107EB0000401A0910501B091060180959095A095CF
:107EC000B0958093030190930401A0930501B093B2
:107ED00006014091090150910A0160910B017091D6
:107EE0000C0184179507A607B70731F060910101CF
:107EF0007091020145E0B5CF6AE588E590E00E9407
:107F0000E63F60E087E590E00E94E63F6091010176
:107F10007091020140E084E00E94833C8FEF99EF72
:107F2000E0E081509040E040E1F700C00000609147
:107F300001017091020140E085E00E94833CFFEF67
:107F400021EE84E0F15020408040E1F700C00000C5
:107F50000E94BE3CE8CEEFE9FFE03197F1F700C0A8
:107F60000000FFEFCF1ADF0AEF0AFF0A21E6C21670
:107F70002AEED206E104F10408F476CE6091010104
:107F80007091020146E08EEE0E94833C80910001D8
:107F90008111C9CE6AE588E590E00E94E63FD8CF1E
:107FA0006927962769277827872778270895DC018E
:107FB00001C06D9341505040E0F70895F999FECF0C
:107FC00092BD81BDF89A992780B50895262FF99919
:107FD000FECF92BD81BDF89A019700B4021639F028
:107FE0001FBA20BD0FB6F894FA9AF99A0FBE0895F9
:047FF000F894FFCF33
:040000030000780081
:00000001FF
